:1000000012C019C018C017C016C015C014C013C044
:1000100012C011C010C00FC00EC00DC00CC00BC06C
:100020000AC009C008C011241FBECFE5D4E0DEBF5E
:10003000CDBF22D02EC0E4CFB89A0895C09A0895BB
:10004000C0980895CF93DF93882399F0D82FC0E00C
:10005000F5DF8FE493EC0197F1F700C00000F0DFCB
:100060008FE493EC0197F1F700C00000CF5FDC1341
:10007000EFCFDF91CF910895DFDF83E0E3DF2FE360
:100080008DE093E0215080409040E1F700C00000F7
:06009000F4CFF894FFCF4D
:00000001FF
