S01600004C6573736F6E5F30315F4750494F2E737265634C
S113000012C019C018C017C016C015C014C013C040
S113001012C011C010C00FC00EC00DC00CC00BC068
S11300200AC009C008C011241FBECFE5D4E0DEBF5A
S1130030CDBF1ED02AC0E4CF8A98929A089582999F
S11300400DC087E893E10197F1F700C0000080B389
S113005082FB992790F981E08927089580E008952B
S1130060B89AC098089598B381E0892788BB089509
S1130070F7DFE2DFD0E001C0DC2FE1DFC82FD111D0
S1110080FBCF8823C9F3EFDFF7CFF894FFCF4F
S9030000FC
