:1000000012C019C018C017C016C015C014C013C044
:1000100012C011C010C00FC00EC00DC00CC00BC06C
:100020000AC009C008C011241FBECFE5D4E0DEBF5E
:10003000CDBF3AD046C0E4CF85E01CD008958A9861
:10004000929A089582990DC087E893E10197F1F79C
:1000500000C0000080B382FB992790F981E08927D6
:10006000089580E00895B89AC0980895C09A0895B8
:10007000C0980895CF93DF93882399F0D82FC0E0DC
:10008000F5DF8FE493EC0197F1F700C00000F0DF9B
:100090008FE493EC0197F1F700C00000CF5FDC1311
:1000A000EFCFDF91CF910895DEDFC9DFD0E001C04F
:1000B000DC2FC8DFC82FD111FBCF8823C9F3BCDFE9
:0600C000F7CFF894FFCF1A
:00000001FF
